:100000000C948E000C94AB000C94AB000C94AB00E1
:100010000C94AB000C94AB000C94AB000C94AB00B4
:100020000C94AB000C94AB000C94AB000C94AB00A4
:100030000C94AB000C94AB000C94AB000C94AB0094
:100040000C9472010C94AB000C94AB000C94AB00BC
:100050000C94AB000C94AB000C94AB000C94AB0074
:100060000C94AB000C94AB00E803D007B80BA00FC6
:100070008813E803D007B80BA00F8813E803D00754
:10008000B80BA00F8813E803D007B80BA00F881394
:10009000E803D007B80BA00F8813E803D007B80B0C
:1000A000A00F8813E803D007B80BA00F8813E8034C
:1000B000D007B80BA00F8813E803D007B80BA00F28
:1000C0008813E803D007B80BA00F881300000008BE
:1000D000000201000003040700000000000000000F
:1000E00000000000250028002B0000000000240074
:1000F00027002A0004040404040404040202020287
:1001000002020303030303030102040810204080DA
:1001100001020408102001020408102011241FBE4F
:10012000CFEFD8E0DEBFCDBF11E0A0E0B1E0E6E95F
:10013000F6E002C005900D92AA36B107D9F721E08A
:10014000AAE6B1E001C01D92A537B207E1F70E940F
:10015000BC010C9449030C94000090E0FC01E85FA2
:10016000FE4F24918C509F4FFC018491882399F07D
:1001700090E0880F991FFC01E651FF4FA591B491C3
:10018000FC01E052FF4F859194918FB7F894EC9168
:10019000E22BEC938FBF089590E0FC01E453FF4FF6
:1001A0002491FC01E85FFE4F3491FC01EC50FF4FBD
:1001B000E491EE23C9F0222339F0233001F1A8F4B1
:1001C000213019F1223029F1F0E0EE0FFF1FE0524B
:1001D000FF4FA591B4918FB7F894EC91611126C0AF
:1001E00030953E233C938FBF08952730A9F02830E7
:1001F000C9F0243049F7809180008F7D03C0809141
:1002000080008F7780938000DFCF84B58F7784BDA7
:10021000DBCF84B58F7DFBCF8091B0008F7780934B
:10022000B000D2CF8091B0008F7DF9CF3E2BDACFD6
:100230003FB7F8948091710190917201A091730180
:10024000B091740126B5A89B05C02F3F19F0019607
:10025000A11DB11D3FBFBA2FA92F982F8827BC0120
:10026000CD01620F711D811D911D42E0660F771F48
:10027000881F991F4A95D1F708958F929F92AF9248
:10028000BF92CF92DF92EF92FF920E9418014B0132
:100290005C0184E6C82ED12CE12CF12C0E941801BF
:1002A000681979098A099B09683E7340810591059F
:1002B000A8F321E0C21AD108E108F10888EE880EFF
:1002C00083E0981EA11CB11CC114D104E104F10407
:1002D00029F7FF90EF90DF90CF90BF90AF909F9065
:1002E0008F9008951F920F920FB60F9211242F93A3
:1002F0003F938F939F93AF93BF9380916D019091A4
:100300006E01A0916F01B091700130916C0123E0FA
:10031000230F2D3758F50196A11DB11D20936C01B7
:1003200080936D0190936E01A0936F01B093700163
:100330008091710190917201A0917301B09174014B
:100340000196A11DB11D8093710190937201A0933C
:100350007301B0937401BF91AF919F918F913F91C1
:100360002F910F900FBE0F901F90189526E8230F26
:100370000296A11DB11DD2CFCF93DF93CDB7DEB7CB
:1003800028970FB6F894DEBF0FBECDBF789484B522
:10039000826084BD84B5816084BD85B5826085BD81
:1003A00085B5816085BD80916E00816080936E000F
:1003B0001092810080918100826080938100809101
:1003C00081008160809381008091800081608093B2
:1003D00080008091B10084608093B1008091B00072
:1003E00081608093B00080917A00846080937A006D
:1003F00080917A00826080937A0080917A00816097
:1004000080937A0080917A00806880937A001092BD
:10041000C1008FE00E94AD0087E00E94AD008BE03C
:100420000E94AD0085E00E94AD0086E00E94AD0014
:100430008AE00E94AD0083E00E94AD0089E00E9446
:10044000AD0010E000E0C8010E943303813021F0CC
:1004500061E0C8010E943B030F5F1F4F011524E0BC
:10046000120789F78CECC82E80E0D82E90E0A92ED8
:1004700090E0B92EEE24E394F12C61E08AE00E9432
:10048000CC0061E083E00E94CC0061E089E00E9442
:10049000CC000E943D0160E08AE00E94CC0060E058
:1004A00083E00E94CC0060E089E00E94CC000E94C2
:1004B0003D0100916A0110916B010115110509F0D0
:1004C000CBC061E087E00E94CC0061E08FE00E9439
:1004D000CC0019821A821B821C82809104019091A7
:1004E0000501892B79F119821A821B821C8224E66C
:1004F00030E088E690E0FC016591749149805A8073
:100500006B807C80460E571E611C711C49825A828A
:100510006B827C820296C816D90669F72150310990
:1005200041F749815A816B817C8181E090E0403CB8
:10053000514E644E710511F090E080E090930501FA
:100540008093040160E087E00E94CC0060E08FE0CF
:100550000E94CC001D821E821F821886809102019B
:1005600090910301892B91F11D821E821F821886B2
:1005700024E630E0E6E0F1E0819191914D805E80EB
:100580006F807884092E000CAA0BBB0B840D951D7F
:10059000A61DB71D8D839E83AF83B88781E0EA36A1
:1005A000F80751F72150310929F74D815E816F819C
:1005B000788581E090E0403C514E644E710511F029
:1005C00090E080E09093030180930201412C512C34
:1005D0003201C8010E943303480E511C611C711C7A
:1005E0000F5F1F4F011584E0180799F7411424E0AD
:1005F00052066104710421F0109201011092000171
:100600008091040190910501892B41F461E08BE018
:100610000E94CC00F0926B01E0926A01809102018D
:1006200090910301892B41F461E085E00E94CC00A8
:10063000F0926B01E0926A018091000190910101BA
:10064000892B09F036CF61E086E00E94CC00F09261
:100650006B01E0926A012DCFA114B10409F40DCF12
:100660000E9400000ACFF999FECF92BD81BDF89A91
:10067000992780B50895262FF999FECF1FBA92BD0C
:1006800081BD20BD0FB6F894FA9AF99A0FBE019673
:060690000895F894FFCF6D
:10069600010001000100E803D007B80BA00F881382
:1006A600E803D007B80BA00F8813E803D007B80BF0
:1006B600A00F8813E803D007B80BA00F8813E80330
:1006C600D007B80BA00F8813E803D007B80BA00F0C
:1006D6008813E803D007B80BA00F8813E803D007E8
:1006E600B80BA00F8813E803D007B80BA00F881328
:0A06F600E803D007B80BA00F88132B
:00000001FF
